{
  "contractName": "Authenticate",
  "abi": [
    {
      "constant": true,
      "inputs": [
        {
          "name": "",
          "type": "uint256"
        }
      ],
      "name": "userAddresses",
      "outputs": [
        {
          "name": "",
          "type": "address"
        }
      ],
      "payable": false,
      "stateMutability": "view",
      "type": "function"
    },
    {
      "constant": true,
      "inputs": [
        {
          "name": "",
          "type": "address"
        }
      ],
      "name": "users",
      "outputs": [
        {
          "name": "name",
          "type": "string"
        },
        {
          "name": "username",
          "type": "string"
        },
        {
          "name": "email",
          "type": "string"
        },
        {
          "name": "salt",
          "type": "string"
        },
        {
          "name": "hashedPassword",
          "type": "bytes32"
        },
        {
          "name": "walletAddress",
          "type": "address"
        },
        {
          "name": "isEmailVerified",
          "type": "bool"
        }
      ],
      "payable": false,
      "stateMutability": "view",
      "type": "function"
    },
    {
      "constant": true,
      "inputs": [],
      "name": "otpContractAddress",
      "outputs": [
        {
          "name": "",
          "type": "address"
        }
      ],
      "payable": false,
      "stateMutability": "view",
      "type": "function"
    },
    {
      "inputs": [
        {
          "name": "_otpContractAddress",
          "type": "address"
        }
      ],
      "payable": false,
      "stateMutability": "nonpayable",
      "type": "constructor"
    },
    {
      "anonymous": false,
      "inputs": [
        {
          "indexed": true,
          "name": "walletAddress",
          "type": "address"
        },
        {
          "indexed": false,
          "name": "username",
          "type": "string"
        },
        {
          "indexed": false,
          "name": "email",
          "type": "string"
        },
        {
          "indexed": false,
          "name": "timestamp",
          "type": "uint256"
        }
      ],
      "name": "NewAccountCreated",
      "type": "event"
    },
    {
      "anonymous": false,
      "inputs": [
        {
          "indexed": true,
          "name": "walletAddress",
          "type": "address"
        },
        {
          "indexed": false,
          "name": "email",
          "type": "string"
        },
        {
          "indexed": false,
          "name": "timestamp",
          "type": "uint256"
        }
      ],
      "name": "EmailVerified",
      "type": "event"
    },
    {
      "anonymous": false,
      "inputs": [
        {
          "indexed": false,
          "name": "email",
          "type": "string"
        },
        {
          "indexed": false,
          "name": "linkedAddress",
          "type": "address"
        }
      ],
      "name": "DebugEmailMapping",
      "type": "event"
    },
    {
      "constant": false,
      "inputs": [
        {
          "name": "name",
          "type": "string"
        },
        {
          "name": "username",
          "type": "string"
        },
        {
          "name": "email",
          "type": "string"
        },
        {
          "name": "salt",
          "type": "string"
        },
        {
          "name": "password",
          "type": "string"
        }
      ],
      "name": "createAccount",
      "outputs": [],
      "payable": false,
      "stateMutability": "nonpayable",
      "type": "function"
    },
    {
      "constant": false,
      "inputs": [
        {
          "name": "otp",
          "type": "uint256"
        }
      ],
      "name": "verifyEmail",
      "outputs": [],
      "payable": false,
      "stateMutability": "nonpayable",
      "type": "function"
    },
    {
      "constant": true,
      "inputs": [],
      "name": "getAllUserAddresses",
      "outputs": [
        {
          "name": "",
          "type": "address[]"
        }
      ],
      "payable": false,
      "stateMutability": "view",
      "type": "function"
    },
    {
      "constant": true,
      "inputs": [
        {
          "name": "email",
          "type": "string"
        }
      ],
      "name": "getAddressByEmail",
      "outputs": [
        {
          "name": "",
          "type": "address"
        }
      ],
      "payable": false,
      "stateMutability": "view",
      "type": "function"
    },
    {
      "constant": true,
      "inputs": [
        {
          "name": "password",
          "type": "string"
        },
        {
          "name": "userAddress",
          "type": "address"
        }
      ],
      "name": "verifyPassword",
      "outputs": [
        {
          "name": "",
          "type": "bool"
        }
      ],
      "payable": false,
      "stateMutability": "view",
      "type": "function"
    }
  ],
  "bytecode": "0x608060405234801561001057600080fd5b506040516020806121008339810180604052602081101561003057600080fd5b810190808051906020019092919050505080600460006101000a81548173ffffffffffffffffffffffffffffffffffffffff021916908373ffffffffffffffffffffffffffffffffffffffff1602179055505061206e806100926000396000f3fe608060405260043610610088576000357c0100000000000000000000000000000000000000000000000000000000900480632f3300231461008d578063502c9bd5146100f957806355a2d9fd146101745780638af37b66146104985780639984401714610598578063a87430ba146105d3578063c5caea0114610826578063ed09fd181461092e575b600080fd5b34801561009957600080fd5b506100a2610985565b6040518080602001828103825283818151815260200191508051906020019060200280838360005b838110156100e55780820151818401526020810190506100ca565b505050509050019250505060405180910390f35b34801561010557600080fd5b506101326004803603602081101561011c57600080fd5b8101908080359060200190929190505050610a13565b604051808273ffffffffffffffffffffffffffffffffffffffff1673ffffffffffffffffffffffffffffffffffffffff16815260200191505060405180910390f35b34801561018057600080fd5b50610496600480360360a081101561019757600080fd5b81019080803590602001906401000000008111156101b457600080fd5b8201836020820111156101c657600080fd5b803590602001918460018302840111640100000000831117156101e857600080fd5b91908080601f016020809104026020016040519081016040528093929190818152602001838380828437600081840152601f19601f8201169050808301925050505050505091929192908035906020019064010000000081111561024b57600080fd5b82018360208201111561025d57600080fd5b8035906020019184600183028401116401000000008311171561027f57600080fd5b91908080601f016020809104026020016040519081016040528093929190818152602001838380828437600081840152601f19601f820116905080830192505050505050509192919290803590602001906401000000008111156102e257600080fd5b8201836020820111156102f457600080fd5b8035906020019184600183028401116401000000008311171561031657600080fd5b91908080601f016020809104026020016040519081016040528093929190818152602001838380828437600081840152601f19601f8201169050808301925050505050505091929192908035906020019064010000000081111561037957600080fd5b82018360208201111561038b57600080fd5b803590602001918460018302840111640100000000831117156103ad57600080fd5b91908080601f016020809104026020016040519081016040528093929190818152602001838380828437600081840152601f19601f8201169050808301925050505050505091929192908035906020019064010000000081111561041057600080fd5b82018360208201111561042257600080fd5b8035906020019184600183028401116401000000008311171561044457600080fd5b91908080601f016020809104026020016040519081016040528093929190818152602001838380828437600081840152601f19601f820116905080830192505050505050509192919290505050610a51565b005b3480156104a457600080fd5b5061057e600480360360408110156104bb57600080fd5b81019080803590602001906401000000008111156104d857600080fd5b8201836020820111156104ea57600080fd5b8035906020019184600183028401116401000000008311171561050c57600080fd5b91908080601f016020809104026020016040519081016040528093929190818152602001838380828437600081840152601f19601f820116905080830192505050505050509192919290803573ffffffffffffffffffffffffffffffffffffffff1690602001909291905050506112f5565b604051808215151515815260200191505060405180910390f35b3480156105a457600080fd5b506105d1600480360360208110156105bb57600080fd5b81019080803590602001909291905050506114b6565b005b3480156105df57600080fd5b50610622600480360360208110156105f657600080fd5b81019080803573ffffffffffffffffffffffffffffffffffffffff169060200190929190505050611a06565b60405180806020018060200180602001806020018881526020018773ffffffffffffffffffffffffffffffffffffffff1673ffffffffffffffffffffffffffffffffffffffff1681526020018615151515815260200185810385528c818151815260200191508051906020019080838360005b838110156106b0578082015181840152602081019050610695565b50505050905090810190601f1680156106dd5780820380516001836020036101000a031916815260200191505b5085810384528b818151815260200191508051906020019080838360005b838110156107165780820151818401526020810190506106fb565b50505050905090810190601f1680156107435780820380516001836020036101000a031916815260200191505b5085810383528a818151815260200191508051906020019080838360005b8381101561077c578082015181840152602081019050610761565b50505050905090810190601f1680156107a95780820380516001836020036101000a031916815260200191505b50858103825289818151815260200191508051906020019080838360005b838110156107e25780820151818401526020810190506107c7565b50505050905090810190601f16801561080f5780820380516001836020036101000a031916815260200191505b509b50505050505050505050505060405180910390f35b34801561083257600080fd5b506108ec6004803603602081101561084957600080fd5b810190808035906020019064010000000081111561086657600080fd5b82018360208201111561087857600080fd5b8035906020019184600183028401116401000000008311171561089a57600080fd5b91908080601f016020809104026020016040519081016040528093929190818152602001838380828437600081840152601f19601f820116905080830192505050505050509192919290505050611cd5565b604051808273ffffffffffffffffffffffffffffffffffffffff1673ffffffffffffffffffffffffffffffffffffffff16815260200191505060405180910390f35b34801561093a57600080fd5b50610943611d75565b604051808273ffffffffffffffffffffffffffffffffffffffff1673ffffffffffffffffffffffffffffffffffffffff16815260200191505060405180910390f35b60606002805480602002602001604051908101604052809291908181526020018280548015610a0957602002820191906000526020600020905b8160009054906101000a900473ffffffffffffffffffffffffffffffffffffffff1673ffffffffffffffffffffffffffffffffffffffff16815260200190600101908083116109bf575b5050505050905090565b600281815481101515610a2257fe5b906000526020600020016000915054906101000a900473ffffffffffffffffffffffffffffffffffffffff1681565b610a5a83611d9b565b9250600073ffffffffffffffffffffffffffffffffffffffff166000803373ffffffffffffffffffffffffffffffffffffffff1673ffffffffffffffffffffffffffffffffffffffff16815260200190815260200160002060050160009054906101000a900473ffffffffffffffffffffffffffffffffffffffff1673ffffffffffffffffffffffffffffffffffffffff16141515610b61576040517f08c379a00000000000000000000000000000000000000000000000000000000081526004018080602001828103825260168152602001807f4163636f756e7420616c7265616479206578697374730000000000000000000081525060200191505060405180910390fd5b600073ffffffffffffffffffffffffffffffffffffffff166001846040518082805190602001908083835b602083101515610bb15780518252602082019150602081019050602083039250610b8c565b6001836020036101000a038019825116818451168082178552505050505050905001915050908152602001604051809103902060009054906101000a900473ffffffffffffffffffffffffffffffffffffffff1673ffffffffffffffffffffffffffffffffffffffff16141515610c90576040517f08c379a00000000000000000000000000000000000000000000000000000000081526004018080602001828103825260188152602001807f456d61696c20616c72656164792072656769737465726564000000000000000081525060200191505060405180910390fd5b6000610c9c8284611eca565b905060e0604051908101604052808781526020018681526020018581526020018481526020018281526020013373ffffffffffffffffffffffffffffffffffffffff168152602001600015158152506000803373ffffffffffffffffffffffffffffffffffffffff1673ffffffffffffffffffffffffffffffffffffffff1681526020019081526020016000206000820151816000019080519060200190610d45929190611f9d565b506020820151816001019080519060200190610d62929190611f9d565b506040820151816002019080519060200190610d7f929190611f9d565b506060820151816003019080519060200190610d9c929190611f9d565b506080820151816004015560a08201518160050160006101000a81548173ffffffffffffffffffffffffffffffffffffffff021916908373ffffffffffffffffffffffffffffffffffffffff16021790555060c08201518160050160146101000a81548160ff021916908315150217905550905050336001856040518082805190602001908083835b602083101515610e4a5780518252602082019150602081019050602083039250610e25565b6001836020036101000a038019825116818451168082178552505050505050905001915050908152602001604051809103902060006101000a81548173ffffffffffffffffffffffffffffffffffffffff021916908373ffffffffffffffffffffffffffffffffffffffff16021790555060023390806001815401808255809150509060018203906000526020600020016000909192909190916101000a81548173ffffffffffffffffffffffffffffffffffffffff021916908373ffffffffffffffffffffffffffffffffffffffff160217905550507fb81960e3c4216cec0c9054c35d57745e141e8171af321760e76ce7c2a239b138843360405180806020018373ffffffffffffffffffffffffffffffffffffffff1673ffffffffffffffffffffffffffffffffffffffff168152602001828103825284818151815260200191508051906020019080838360005b83811015610fb6578082015181840152602081019050610f9b565b50505050905090810190601f168015610fe35780820380516001836020036101000a031916815260200191505b50935050505060405180910390a13373ffffffffffffffffffffffffffffffffffffffff167f3f3d5dddab5596686c8473830e35c6e28235c2916ba3418528ba37db3b59da7b868642604051808060200180602001848152602001838103835286818151815260200191508051906020019080838360005b8381101561107657808201518184015260208101905061105b565b50505050905090810190601f1680156110a35780820380516001836020036101000a031916815260200191505b50838103825285818151815260200191508051906020019080838360005b838110156110dc5780820151818401526020810190506110c1565b50505050905090810190601f1680156111095780820380516001836020036101000a031916815260200191505b509550505050505060405180910390a26000600460009054906101000a900473ffffffffffffffffffffffffffffffffffffffff1673ffffffffffffffffffffffffffffffffffffffff166040516024016040516020818303038152906040527f08e465d0000000000000000000000000000000000000000000000000000000007bffffffffffffffffffffffffffffffffffffffffffffffffffffffff19166020820180517bffffffffffffffffffffffffffffffffffffffffffffffffffffffff83818316178352505050506040518082805190602001908083835b60208310151561120c57805182526020820191506020810190506020830392506111e7565b6001836020036101000a0380198251168184511680821785525050505050509050019150506000604051808303816000865af19150503d806000811461126e576040519150601f19603f3d011682016040523d82523d6000602084013e611273565b606091505b505090508015156112ec576040517f08c379a00000000000000000000000000000000000000000000000000000000081526004018080602001828103825260158152602001807f4f54502067656e65726174696f6e206661696c6564000000000000000000000081525060200191505060405180910390fd5b50505050505050565b6000806000808473ffffffffffffffffffffffffffffffffffffffff1673ffffffffffffffffffffffffffffffffffffffff1681526020019081526020016000209050600073ffffffffffffffffffffffffffffffffffffffff168160050160009054906101000a900473ffffffffffffffffffffffffffffffffffffffff1673ffffffffffffffffffffffffffffffffffffffff1614151515611401576040517f08c379a000000000000000000000000000000000000000000000000000000000815260040180806020018281038252600e8152602001807f55736572206e6f7420666f756e6400000000000000000000000000000000000081525060200191505060405180910390fd5b6114a784826003018054600181600116156101000203166002900480601f01602080910402602001604051908101604052809291908181526020018280546001816001161561010002031660029004801561149d5780601f106114725761010080835404028352916020019161149d565b820191906000526020600020905b81548152906001019060200180831161148057829003601f168201915b5050505050611eca565b81600401541491505092915050565b600073ffffffffffffffffffffffffffffffffffffffff166000803373ffffffffffffffffffffffffffffffffffffffff1673ffffffffffffffffffffffffffffffffffffffff16815260200190815260200160002060050160009054906101000a900473ffffffffffffffffffffffffffffffffffffffff1673ffffffffffffffffffffffffffffffffffffffff16141515156115bc576040517f08c379a00000000000000000000000000000000000000000000000000000000081526004018080602001828103825260168152602001807f4163636f756e7420646f6573206e6f742065786973740000000000000000000081525060200191505060405180910390fd5b6000803373ffffffffffffffffffffffffffffffffffffffff1673ffffffffffffffffffffffffffffffffffffffff16815260200190815260200160002060050160149054906101000a900460ff16151515611680576040517f08c379a00000000000000000000000000000000000000000000000000000000081526004018080602001828103825260168152602001807f456d61696c20616c72656164792076657269666965640000000000000000000081525060200191505060405180910390fd5b60006060600460009054906101000a900473ffffffffffffffffffffffffffffffffffffffff1673ffffffffffffffffffffffffffffffffffffffff1683604051602401808281526020019150506040516020818303038152906040527f6f525a71000000000000000000000000000000000000000000000000000000007bffffffffffffffffffffffffffffffffffffffffffffffffffffffff19166020820180517bffffffffffffffffffffffffffffffffffffffffffffffffffffffff83818316178352505050506040518082805190602001908083835b602083101515611780578051825260208201915060208101905060208303925061175b565b6001836020036101000a0380198251168184511680821785525050505050509050019150506000604051808303816000865af19150503d80600081146117e2576040519150601f19603f3d011682016040523d82523d6000602084013e6117e7565b606091505b509150915081801561181b575080806020019051602081101561180957600080fd5b81019080805190602001909291905050505b151561188f576040517f08c379a00000000000000000000000000000000000000000000000000000000081526004018080602001828103825260158152602001807f4f54502076616c69646174696f6e206661696c6564000000000000000000000081525060200191505060405180910390fd5b60016000803373ffffffffffffffffffffffffffffffffffffffff1673ffffffffffffffffffffffffffffffffffffffff16815260200190815260200160002060050160146101000a81548160ff0219169083151502179055503373ffffffffffffffffffffffffffffffffffffffff167fa68b18692591952bc2bd2607fa1e34640f4f945fbb6a8d482ad2c58dce2e72ca6000803373ffffffffffffffffffffffffffffffffffffffff1673ffffffffffffffffffffffffffffffffffffffff1681526020019081526020016000206002014260405180806020018381526020018281038252848181546001816001161561010002031660029004815260200191508054600181600116156101000203166002900480156119f25780601f106119c7576101008083540402835291602001916119f2565b820191906000526020600020905b8154815290600101906020018083116119d557829003601f168201915b5050935050505060405180910390a2505050565b6000602052806000526040600020600091509050806000018054600181600116156101000203166002900480601f016020809104026020016040519081016040528092919081815260200182805460018160011615610100020316600290048015611ab25780601f10611a8757610100808354040283529160200191611ab2565b820191906000526020600020905b815481529060010190602001808311611a9557829003601f168201915b505050505090806001018054600181600116156101000203166002900480601f016020809104026020016040519081016040528092919081815260200182805460018160011615610100020316600290048015611b505780601f10611b2557610100808354040283529160200191611b50565b820191906000526020600020905b815481529060010190602001808311611b3357829003601f168201915b505050505090806002018054600181600116156101000203166002900480601f016020809104026020016040519081016040528092919081815260200182805460018160011615610100020316600290048015611bee5780601f10611bc357610100808354040283529160200191611bee565b820191906000526020600020905b815481529060010190602001808311611bd157829003601f168201915b505050505090806003018054600181600116156101000203166002900480601f016020809104026020016040519081016040528092919081815260200182805460018160011615610100020316600290048015611c8c5780601f10611c6157610100808354040283529160200191611c8c565b820191906000526020600020905b815481529060010190602001808311611c6f57829003601f168201915b5050505050908060040154908060050160009054906101000a900473ffffffffffffffffffffffffffffffffffffffff16908060050160149054906101000a900460ff16905087565b6000611ce082611d9b565b91506001826040518082805190602001908083835b602083101515611d1a5780518252602082019150602081019050602083039250611cf5565b6001836020036101000a038019825116818451168082178552505050505050905001915050908152602001604051809103902060009054906101000a900473ffffffffffffffffffffffffffffffffffffffff169050919050565b600460009054906101000a900473ffffffffffffffffffffffffffffffffffffffff1681565b60608082905060008090505b8151811015611ec05760008282815181101515611dc057fe5b9060200101517f010000000000000000000000000000000000000000000000000000000000000090047f0100000000000000000000000000000000000000000000000000000000000000027f01000000000000000000000000000000000000000000000000000000000000009004905060418160ff1610158015611e485750605a8160ff1611155b15611eb257602081017f0100000000000000000000000000000000000000000000000000000000000000028383815181101515611e8157fe5b9060200101907effffffffffffffffffffffffffffffffffffffffffffffffffffffffffffff1916908160001a9053505b508080600101915050611da7565b5080915050919050565b600082826040516020018083805190602001908083835b602083101515611f065780518252602082019150602081019050602083039250611ee1565b6001836020036101000a03801982511681845116808217855250505050505090500182805190602001908083835b602083101515611f595780518252602082019150602081019050602083039250611f34565b6001836020036101000a0380198251168184511680821785525050505050509050019250505060405160208183030381529060405280519060200120905092915050565b828054600181600116156101000203166002900490600052602060002090601f016020900481019282601f10611fde57805160ff191683800117855561200c565b8280016001018555821561200c579182015b8281111561200b578251825591602001919060010190611ff0565b5b509050612019919061201d565b5090565b61203f91905b8082111561203b576000816000905550600101612023565b5090565b9056fea165627a7a723058205db78ebb61e4ed76df1f1f90b35ec2273b375dcadfb4ad51fb5e03d44814d3260029",
  "source": "pragma solidity >=0.4.22 <0.9.0;\r\n\r\nimport \"./OTPContract.sol\"; // Import OTPContract\r\n\r\ncontract Authenticate {\r\n    struct UserAccount {\r\n        string name;\r\n        string username;\r\n        string email;\r\n        string salt;\r\n        bytes32 hashedPassword;\r\n        address walletAddress;\r\n        bool isEmailVerified;\r\n    }\r\n\r\n    mapping(address => UserAccount) public users;\r\n    mapping(string =>address) private emailToAddress;     \r\n    address[] public userAddresses;\r\n    OTPContract private otpContract;\r\n\r\n    event NewAccountCreated(address indexed walletAddress, string username, string email, uint timestamp);\r\n    event EmailVerified(address indexed walletAddress, string email, uint timestamp);\r\n    event DebugEmailMapping(string email, address linkedAddress);\r\n    address public otpContractAddress;\r\n\r\n    constructor(address _otpContractAddress) public {\r\n        otpContractAddress = _otpContractAddress;\r\n    }\r\n\r\nfunction toLowerCase(string memory str) internal pure returns (string memory) {\r\n    bytes memory bStr = bytes(str);\r\n    for (uint i = 0; i < bStr.length; i++) {\r\n        uint8 b = uint8(bStr[i]);\r\n        if (b >= 65 && b <= 90) { // ASCII for A-Z\r\n            bStr[i] = bytes1(b + 32); // Convert to lowercase\r\n        }\r\n    }\r\n    return string(bStr);\r\n}\r\n\r\nfunction hashPassword(string memory password, string memory salt) internal pure returns (bytes32) {\r\n        return keccak256(abi.encodePacked(password, salt)); // Combine password and salt, then hash\r\n    }\r\n    \r\nfunction createAccount(\r\n    string memory name,\r\n    string memory username,\r\n    string memory email,\r\n    string memory salt,\r\n    string memory password\r\n) public {\r\n    email = toLowerCase(email);\r\n    require(users[msg.sender].walletAddress == address(0), \"Account already exists\");\r\n    require(emailToAddress[email] == address(0), \"Email already registered\");\r\n\r\n    bytes32 hashedPassword = hashPassword(password, salt);\r\n\r\n    // Store user details in the mapping\r\n    users[msg.sender] = UserAccount(name, username, email, salt, hashedPassword, msg.sender, false);\r\n    emailToAddress[email] = msg.sender; // Link email to wallet address\r\n    userAddresses.push(msg.sender);\r\n\r\n    // Emit debug event\r\n    emit DebugEmailMapping(email, msg.sender);\r\n\r\n    // Emit event\r\n    emit NewAccountCreated(msg.sender, username, email, block.timestamp);\r\n\r\n    // Call OTPContract's generateOTP function directly using low-level call\r\n    (bool success, ) = otpContractAddress.call(abi.encodeWithSignature(\"generateOTP()\"));\r\n    require(success, \"OTP generation failed\");\r\n}\r\n\r\n    function verifyEmail(uint otp) public {\r\n        require(users[msg.sender].walletAddress != address(0), \"Account does not exist\");\r\n        require(!users[msg.sender].isEmailVerified, \"Email already verified\");\r\n\r\n        // Call OTPContract's verifyOTP function directly using low-level call\r\n        (bool success, bytes memory result) = otpContractAddress.call(\r\n            abi.encodeWithSignature(\"verifyOTP(uint256)\", otp)\r\n        );\r\n        require(success && abi.decode(result, (bool)), \"OTP validation failed\");\r\n\r\n        users[msg.sender].isEmailVerified = true;\r\n        emit EmailVerified(msg.sender, users[msg.sender].email, block.timestamp);\r\n    }\r\n    // Function to retrieve all registered users' addresses\r\n    function getAllUserAddresses() public view returns (address[] memory) {\r\n        return userAddresses;\r\n    }\r\n     // Getter function to retrieve address by email\r\n    function getAddressByEmail(string memory email) public view returns (address) {\r\n    email = toLowerCase(email); // Convert email to lowercase\r\n    return emailToAddress[email];\r\n    }\r\n    function verifyPassword(string memory password, address userAddress) public view returns (bool) {\r\n        UserAccount storage user = users[userAddress];\r\n        require(user.walletAddress != address(0), \"User not found\");\r\n        return user.hashedPassword == hashPassword(password, user.salt); // Verify password by rehashing\r\n    }\r\n}\r\n",
  "sourcePath": "D:\\O_AN_OTP_BLOCKCHAIN\\OTP-Blockchain\\contracts\\Authenticate.sol",
  "compiler": {
    "name": "solc",
    "version": "0.5.1+commit.c8a2cb62.Emscripten.clang"
  },
  "schemaVersion": "3.4.16",
  "updatedAt": "2025-04-07T14:01:29.175Z",
  "networkType": "ethereum",
  "devdoc": {
    "methods": {}
  },
  "userdoc": {
    "methods": {}
  }
}