{
  "contractName": "OTPContract",
  "abi": [
    {
      "constant": true,
      "inputs": [
        {
          "name": "",
          "type": "address"
        }
      ],
      "name": "otpStorage",
      "outputs": [
        {
          "name": "otp",
          "type": "uint256"
        },
        {
          "name": "expiry",
          "type": "uint256"
        },
        {
          "name": "otpString",
          "type": "string"
        }
      ],
      "payable": false,
      "stateMutability": "view",
      "type": "function"
    },
    {
      "anonymous": false,
      "inputs": [
        {
          "indexed": true,
          "name": "user",
          "type": "address"
        },
        {
          "indexed": false,
          "name": "otp",
          "type": "uint256"
        },
        {
          "indexed": false,
          "name": "expiry",
          "type": "uint256"
        }
      ],
      "name": "OTPGenerated",
      "type": "event"
    },
    {
      "anonymous": false,
      "inputs": [
        {
          "indexed": true,
          "name": "user",
          "type": "address"
        },
        {
          "indexed": false,
          "name": "otp",
          "type": "uint256"
        },
        {
          "indexed": false,
          "name": "success",
          "type": "bool"
        }
      ],
      "name": "OTPVerified",
      "type": "event"
    },
    {
      "constant": false,
      "inputs": [],
      "name": "generateOTP",
      "outputs": [],
      "payable": false,
      "stateMutability": "nonpayable",
      "type": "function"
    },
    {
      "constant": true,
      "inputs": [
        {
          "name": "user",
          "type": "address"
        }
      ],
      "name": "getOTP",
      "outputs": [
        {
          "name": "",
          "type": "uint256"
        }
      ],
      "payable": false,
      "stateMutability": "view",
      "type": "function"
    },
    {
      "constant": false,
      "inputs": [
        {
          "name": "_otp",
          "type": "uint256"
        }
      ],
      "name": "verifyOTP",
      "outputs": [
        {
          "name": "",
          "type": "bool"
        }
      ],
      "payable": false,
      "stateMutability": "nonpayable",
      "type": "function"
    },
    {
      "constant": true,
      "inputs": [],
      "name": "getAllOTPAddresses",
      "outputs": [
        {
          "name": "",
          "type": "address[]"
        }
      ],
      "payable": false,
      "stateMutability": "view",
      "type": "function"
    }
  ],
  "bytecode": "0x608060405234801561001057600080fd5b50610acc806100206000396000f3fe608060405260043610610067576000357c01000000000000000000000000000000000000000000000000000000009004806308e465d01461006c578063533a4eed146100835780636dcdb7b81461015b5780636f525a71146101c757806374efaa611461021a575b600080fd5b34801561007857600080fd5b5061008161027f565b005b34801561008f57600080fd5b506100d2600480360360208110156100a657600080fd5b81019080803573ffffffffffffffffffffffffffffffffffffffff169060200190929190505050610536565b6040518084815260200183815260200180602001828103825283818151815260200191508051906020019080838360005b8381101561011e578082015181840152602081019050610103565b50505050905090810190601f16801561014b5780820380516001836020036101000a031916815260200191505b5094505050505060405180910390f35b34801561016757600080fd5b506101706105f8565b6040518080602001828103825283818151815260200191508051906020019060200280838360005b838110156101b3578082015181840152602081019050610198565b505050509050019250505060405180910390f35b3480156101d357600080fd5b50610200600480360360208110156101ea57600080fd5b8101908080359060200190929190505050610686565b604051808215151515815260200191505060405180910390f35b34801561022657600080fd5b506102696004803603602081101561023d57600080fd5b81019080803573ffffffffffffffffffffffffffffffffffffffff169060200190929190505050610886565b6040518082815260200191505060405180910390f35b426000803373ffffffffffffffffffffffffffffffffffffffff1673ffffffffffffffffffffffffffffffffffffffff16815260200190815260200160002060010154101515610337576040517f08c379a00000000000000000000000000000000000000000000000000000000081526004018080602001828103825260188152602001807f4578697374696e67204f5450207374696c6c2076616c6964000000000000000081525060200191505060405180910390fd5b6000620f42404233600254604051602001808481526020018373ffffffffffffffffffffffffffffffffffffffff1673ffffffffffffffffffffffffffffffffffffffff166c01000000000000000000000000028152601401828152602001935050505060405160208183030381529060405280519060200120600190048115156103be57fe5b06905060606103cc826108d1565b905060606040519081016040528083815260200161012c42018152602001828152506000803373ffffffffffffffffffffffffffffffffffffffff1673ffffffffffffffffffffffffffffffffffffffff1681526020019081526020016000206000820151816000015560208201518160010155604082015181600201908051906020019061045c9291906109b3565b5090505060013390806001815401808255809150509060018203906000526020600020016000909192909190916101000a81548173ffffffffffffffffffffffffffffffffffffffff021916908373ffffffffffffffffffffffffffffffffffffffff160217905550506002600081548092919060010191905055503373ffffffffffffffffffffffffffffffffffffffff167fc3b8642685bee42bf9fbae8cd586b2b7ff733ef7e24f3d57797ac17d43bd7f198361012c4201604051808381526020018281526020019250505060405180910390a25050565b6000602052806000526040600020600091509050806000015490806001015490806002018054600181600116156101000203166002900480601f0160208091040260200160405190810160405280929190818152602001828054600181600116156101000203166002900480156105ee5780601f106105c3576101008083540402835291602001916105ee565b820191906000526020600020905b8154815290600101906020018083116105d157829003601f168201915b5050505050905083565b6060600180548060200260200160405190810160405280929190818152602001828054801561067c57602002820191906000526020600020905b8160009054906101000a900473ffffffffffffffffffffffffffffffffffffffff1673ffffffffffffffffffffffffffffffffffffffff1681526020019060010190808311610632575b5050505050905090565b6000806000803373ffffffffffffffffffffffffffffffffffffffff1673ffffffffffffffffffffffffffffffffffffffff168152602001908152602001600020905080600101544211151515610745576040517f08c379a000000000000000000000000000000000000000000000000000000000815260040180806020018281038252600b8152602001807f4f5450206578706972656400000000000000000000000000000000000000000081525060200191505060405180910390fd5b8281600001541415156107c0576040517f08c379a000000000000000000000000000000000000000000000000000000000815260040180806020018281038252600b8152602001807f496e76616c6964204f545000000000000000000000000000000000000000000081525060200191505060405180910390fd5b6000803373ffffffffffffffffffffffffffffffffffffffff1673ffffffffffffffffffffffffffffffffffffffff168152602001908152602001600020600080820160009055600182016000905560028201600061081f9190610a33565b50503373ffffffffffffffffffffffffffffffffffffffff167fdfa45c746c7c43a4b101c84230038e2b604594a5b93e207e02c73717cb043d7484600160405180838152602001821515151581526020019250505060405180910390a26001915050919050565b60008060008373ffffffffffffffffffffffffffffffffffffffff1673ffffffffffffffffffffffffffffffffffffffff168152602001908152602001600020600001549050919050565b60608060066040519080825280601f01601f1916602001820160405280156109085781602001600182028038833980820191505090505b50905060008090505b60068110156109a957600a8481151561092657fe5b066030017f010000000000000000000000000000000000000000000000000000000000000002828260050381518110151561095d57fe5b9060200101907effffffffffffffffffffffffffffffffffffffffffffffffffffffffffffff1916908160001a905350600a8481151561099957fe5b0493508080600101915050610911565b5080915050919050565b828054600181600116156101000203166002900490600052602060002090601f016020900481019282601f106109f457805160ff1916838001178555610a22565b82800160010185558215610a22579182015b82811115610a21578251825591602001919060010190610a06565b5b509050610a2f9190610a7b565b5090565b50805460018160011615610100020316600290046000825580601f10610a595750610a78565b601f016020900490600052602060002090810190610a779190610a7b565b5b50565b610a9d91905b80821115610a99576000816000905550600101610a81565b5090565b9056fea165627a7a723058203c8be67c7af9e12a3c7ed2f51cbf2a70053dc53d639acd75bf09c4c5d2a3f92a0029",
  "source": "// SPDX-License-Identifier: MIT\r\npragma solidity >=0.4.22 <0.9.0;\r\n\r\ncontract OTPContract {\r\n    struct OTPInfo {\r\n        uint otp;           // Numeric OTP\r\n        uint expiry;        // Expiry time\r\n        string otpString;   // OTP as a string\r\n    }\r\n\r\n    mapping(address => OTPInfo) public otpStorage;\r\n    address[] private otpAddresses; // Array to track addresses with OTPs\r\n    event OTPGenerated(address indexed user, uint otp, uint expiry);\r\n    event OTPVerified(address indexed user, uint otp, bool success);\r\n\r\n    uint private nonce; // Nonce for randomness\r\n\r\n    // Function to generate and store an OTP\r\n    function generateOTP() public {\r\n        require(otpStorage[msg.sender].expiry < block.timestamp, \"Existing OTP still valid\");\r\n        uint otp = uint(keccak256(abi.encodePacked(block.timestamp, msg.sender, nonce))) % 1000000;\r\n        \r\n         // Ensure OTP is always a 6-digit string with leading zeros if needed\r\n        string memory otpString = uintToString(otp);\r\n\r\n        otpStorage[msg.sender] = OTPInfo(otp, block.timestamp + 300 seconds, otpString); // Set expiry to 300 seconds\r\n        otpAddresses.push(msg.sender);\r\n\r\n        nonce++; // Increment nonce for the next OTP generation\r\n\r\n        emit OTPGenerated(msg.sender, otp, block.timestamp + 300 seconds);\r\n\r\n    }\r\n\r\n    function getOTP(address user) external view returns (uint) {\r\n        return otpStorage[user].otp;\r\n    }\r\n\r\n    // Function to verify an OTP\r\n    function verifyOTP(uint _otp) public returns (bool) {\r\n    OTPInfo storage info = otpStorage[msg.sender];\r\n    require(block.timestamp <= info.expiry, \"OTP expired\");\r\n    require(info.otp == _otp, \"Invalid OTP\");\r\n\r\n    delete otpStorage[msg.sender]; // Remove OTP after successful verification\r\n\r\n    emit OTPVerified(msg.sender, _otp, true);\r\n    return true;\r\n}\r\n\r\n    // Function to retrieve all addresses that have generated OTPs\r\n    function getAllOTPAddresses() public view returns (address[] memory) {\r\n        return otpAddresses;\r\n    }\r\n\r\n // Helper function to convert uint to a zero-padded 6-digit string\r\nfunction uintToString(uint v) internal pure returns (string memory) {\r\n    bytes memory bstr = new bytes(6); // Fixed length for 6 digits\r\n\r\n    // Populate the array with the digits, starting from the least significant\r\n    for (uint i = 0; i < 6; i++) {\r\n        bstr[5 - i] = bytes1(uint8(48 + (v % 10))); // Extract last digit\r\n        v /= 10; // Remove the last digit\r\n    }\r\n\r\n    return string(bstr);\r\n}\r\n\r\n\r\n}\r\n",
  "sourcePath": "D:\\ÄO_AN_OTP_BLOCKCHAIN\\OTP-Blockchain\\contracts\\OTPContract.sol",
  "compiler": {
    "name": "solc",
    "version": "0.5.1+commit.c8a2cb62.Emscripten.clang"
  },
  "schemaVersion": "3.4.16",
  "updatedAt": "2025-05-04T04:53:16.522Z",
  "networkType": "ethereum",
  "devdoc": {
    "methods": {}
  },
  "userdoc": {
    "methods": {}
  }
}