{
  "contractName": "OTPContract",
  "abi": [
    {
      "constant": true,
      "inputs": [
        {
          "name": "",
          "type": "address"
        }
      ],
      "name": "otpStorage",
      "outputs": [
        {
          "name": "otp",
          "type": "uint256"
        },
        {
          "name": "expiry",
          "type": "uint256"
        },
        {
          "name": "otpString",
          "type": "string"
        }
      ],
      "payable": false,
      "stateMutability": "view",
      "type": "function"
    },
    {
      "anonymous": false,
      "inputs": [
        {
          "indexed": true,
          "name": "user",
          "type": "address"
        },
        {
          "indexed": false,
          "name": "otp",
          "type": "uint256"
        },
        {
          "indexed": false,
          "name": "expiry",
          "type": "uint256"
        }
      ],
      "name": "OTPGenerated",
      "type": "event"
    },
    {
      "anonymous": false,
      "inputs": [
        {
          "indexed": true,
          "name": "user",
          "type": "address"
        },
        {
          "indexed": false,
          "name": "otp",
          "type": "uint256"
        },
        {
          "indexed": false,
          "name": "success",
          "type": "bool"
        }
      ],
      "name": "OTPVerified",
      "type": "event"
    },
    {
      "constant": false,
      "inputs": [],
      "name": "generateOTP",
      "outputs": [],
      "payable": false,
      "stateMutability": "nonpayable",
      "type": "function"
    },
    {
      "constant": true,
      "inputs": [
        {
          "name": "_otp",
          "type": "uint256"
        }
      ],
      "name": "verifyOTP",
      "outputs": [
        {
          "name": "",
          "type": "bool"
        }
      ],
      "payable": false,
      "stateMutability": "view",
      "type": "function"
    },
    {
      "constant": true,
      "inputs": [],
      "name": "getAllOTPAddresses",
      "outputs": [
        {
          "name": "",
          "type": "address[]"
        }
      ],
      "payable": false,
      "stateMutability": "view",
      "type": "function"
    }
  ],
  "bytecode": "0x608060405234801561001057600080fd5b50610900806100206000396000f3fe60806040526004361061005c576000357c01000000000000000000000000000000000000000000000000000000009004806308e465d014610061578063533a4eed146100785780636dcdb7b8146101505780636f525a71146101bc575b600080fd5b34801561006d57600080fd5b5061007661020f565b005b34801561008457600080fd5b506100c76004803603602081101561009b57600080fd5b81019080803573ffffffffffffffffffffffffffffffffffffffff169060200190929190505050610444565b6040518084815260200183815260200180602001828103825283818151815260200191508051906020019080838360005b838110156101135780820151818401526020810190506100f8565b50505050905090810190601f1680156101405780820380516001836020036101000a031916815260200191505b5094505050505060405180910390f35b34801561015c57600080fd5b50610165610506565b6040518080602001828103825283818151815260200191508051906020019060200280838360005b838110156101a857808201518184015260208101905061018d565b505050509050019250505060405180910390f35b3480156101c857600080fd5b506101f5600480360360208110156101df57600080fd5b8101908080359060200190929190505050610594565b604051808215151515815260200191505060405180910390f35b6000620f42404233600254604051602001808481526020018373ffffffffffffffffffffffffffffffffffffffff1673ffffffffffffffffffffffffffffffffffffffff166c010000000000000000000000000281526014018281526020019350505050604051602081830303815290604052805190602001206001900481151561029657fe5b06905060606102a48261072b565b905060606040519081016040528083815260200161012c42018152602001828152506000803373ffffffffffffffffffffffffffffffffffffffff1673ffffffffffffffffffffffffffffffffffffffff1681526020019081526020016000206000820151816000015560208201518160010155604082015181600201908051906020019061033492919061080d565b509050506002600081548092919060010191905055503373ffffffffffffffffffffffffffffffffffffffff167fc3b8642685bee42bf9fbae8cd586b2b7ff733ef7e24f3d57797ac17d43bd7f198361012c4201604051808381526020018281526020019250505060405180910390a2816000803373ffffffffffffffffffffffffffffffffffffffff1673ffffffffffffffffffffffffffffffffffffffff168152602001908152602001600020600001541415156103f057fe5b61012c42016000803373ffffffffffffffffffffffffffffffffffffffff1673ffffffffffffffffffffffffffffffffffffffff1681526020019081526020016000206001015414151561044057fe5b5050565b6000602052806000526040600020600091509050806000015490806001015490806002018054600181600116156101000203166002900480601f0160208091040260200160405190810160405280929190818152602001828054600181600116156101000203166002900480156104fc5780601f106104d1576101008083540402835291602001916104fc565b820191906000526020600020905b8154815290600101906020018083116104df57829003601f168201915b5050505050905083565b6060600180548060200260200160405190810160405280929190818152602001828054801561058a57602002820191906000526020600020905b8160009054906101000a900473ffffffffffffffffffffffffffffffffffffffff1673ffffffffffffffffffffffffffffffffffffffff1681526020019060010190808311610540575b5050505050905090565b600061059e61088d565b6000803373ffffffffffffffffffffffffffffffffffffffff1673ffffffffffffffffffffffffffffffffffffffff168152602001908152602001600020606060405190810160405290816000820154815260200160018201548152602001600282018054600181600116156101000203166002900480601f0160208091040260200160405190810160405280929190818152602001828054600181600116156101000203166002900480156106955780601f1061066a57610100808354040283529160200191610695565b820191906000526020600020905b81548152906001019060200180831161067857829003601f168201915b50505050508152505090508060200151421115151561071c576040517f08c379a000000000000000000000000000000000000000000000000000000000815260040180806020018281038252600b8152602001807f4f5450206578706972656400000000000000000000000000000000000000000081525060200191505060405180910390fd5b82816000015114915050919050565b60608060066040519080825280601f01601f1916602001820160405280156107625781602001600182028038833980820191505090505b50905060008090505b600681101561080357600a8481151561078057fe5b066030017f01000000000000000000000000000000000000000000000000000000000000000282826005038151811015156107b757fe5b9060200101907effffffffffffffffffffffffffffffffffffffffffffffffffffffffffffff1916908160001a905350600a848115156107f357fe5b049350808060010191505061076b565b5080915050919050565b828054600181600116156101000203166002900490600052602060002090601f016020900481019282601f1061084e57805160ff191683800117855561087c565b8280016001018555821561087c579182015b8281111561087b578251825591602001919060010190610860565b5b50905061088991906108af565b5090565b6060604051908101604052806000815260200160008152602001606081525090565b6108d191905b808211156108cd5760008160009055506001016108b5565b5090565b9056fea165627a7a7230582044ace4441b661845a02ba186e358d0b90d0ecb01f2c003bd558e227b665171f80029",
  "source": "// SPDX-License-Identifier: MIT\r\npragma solidity >=0.4.22 <0.9.0;\r\n\r\ncontract OTPContract {\r\n    struct OTPInfo {\r\n        uint otp;           // Numeric OTP\r\n        uint expiry;        // Expiry time\r\n        string otpString;   // OTP as a string\r\n    }\r\n\r\n    mapping(address => OTPInfo) public otpStorage;\r\n     address[] private otpAddresses; // Array to track addresses with OTPs\r\n    event OTPGenerated(address indexed user, uint otp, uint expiry);\r\n    event OTPVerified(address indexed user, uint otp, bool success);\r\n\r\n    uint private nonce; // Nonce for randomness\r\n\r\n    // Function to generate and store an OTP\r\n    function generateOTP() public {\r\n        uint otp = uint(keccak256(abi.encodePacked(block.timestamp, msg.sender, nonce))) % 1000000;\r\n        \r\n         // Ensure OTP is always a 6-digit string with leading zeros if needed\r\n        string memory otpString = uintToString(otp);\r\n\r\n        otpStorage[msg.sender] = OTPInfo(otp, block.timestamp + 300 seconds, otpString); // Set expiry to 300 seconds\r\n        nonce++; // Increment nonce for the next OTP generation\r\n\r\n        emit OTPGenerated(msg.sender, otp, block.timestamp + 300 seconds);\r\n\r\n        // Ensure the OTP was correctly stored\r\n        assert(otpStorage[msg.sender].otp == otp);\r\n        assert(otpStorage[msg.sender].expiry == block.timestamp + 300 seconds);\r\n    }\r\n\r\n    // Function to verify an OTP\r\n    function verifyOTP(uint _otp) public view returns (bool) {\r\n        OTPInfo memory info = otpStorage[msg.sender];\r\n        require(block.timestamp <= info.expiry, \"OTP expired\");\r\n\r\n        return info.otp == _otp;\r\n    }\r\n    // Function to retrieve all addresses that have generated OTPs\r\n    function getAllOTPAddresses() public view returns (address[] memory) {\r\n        return otpAddresses;\r\n    }\r\n\r\n // Helper function to convert uint to a zero-padded 6-digit string\r\nfunction uintToString(uint v) internal pure returns (string memory) {\r\n    bytes memory bstr = new bytes(6); // Fixed length for 6 digits\r\n\r\n    // Populate the array with the digits, starting from the least significant\r\n    for (uint i = 0; i < 6; i++) {\r\n        bstr[5 - i] = bytes1(uint8(48 + (v % 10))); // Extract last digit\r\n        v /= 10; // Remove the last digit\r\n    }\r\n\r\n    return string(bstr);\r\n}\r\n\r\n\r\n}\r\n",
  "sourcePath": "D:\\ÄO_AN_OTP_BLOCKCHAIN\\OTP-Blockchain\\contracts\\OTPContract.sol",
  "compiler": {
    "name": "solc",
    "version": "0.5.1+commit.c8a2cb62.Emscripten.clang"
  },
  "schemaVersion": "3.4.16",
  "updatedAt": "2024-11-26T09:20:06.001Z",
  "networkType": "ethereum",
  "devdoc": {
    "methods": {}
  },
  "userdoc": {
    "methods": {}
  }
}